{
  "_format": "hh-sol-artifact-1",
  "contractName": "TestToken",
  "sourceName": "contracts/TestToken.sol",
  "abi": [
    {
      "inputs": [],
      "stateMutability": "nonpayable",
      "type": "constructor"
    },
    {
      "anonymous": false,
      "inputs": [
        {
          "indexed": false,
          "internalType": "address",
          "name": "previousAdmin",
          "type": "address"
        },
        {
          "indexed": false,
          "internalType": "address",
          "name": "newAdmin",
          "type": "address"
        }
      ],
      "name": "AdminChanged",
      "type": "event"
    },
    {
      "anonymous": false,
      "inputs": [
        {
          "indexed": true,
          "internalType": "address",
          "name": "owner",
          "type": "address"
        },
        {
          "indexed": true,
          "internalType": "address",
          "name": "approved",
          "type": "address"
        },
        {
          "indexed": true,
          "internalType": "uint256",
          "name": "tokenId",
          "type": "uint256"
        }
      ],
      "name": "Approval",
      "type": "event"
    },
    {
      "anonymous": false,
      "inputs": [
        {
          "indexed": true,
          "internalType": "address",
          "name": "owner",
          "type": "address"
        },
        {
          "indexed": true,
          "internalType": "address",
          "name": "operator",
          "type": "address"
        },
        {
          "indexed": false,
          "internalType": "bool",
          "name": "approved",
          "type": "bool"
        }
      ],
      "name": "ApprovalForAll",
      "type": "event"
    },
    {
      "anonymous": false,
      "inputs": [
        {
          "indexed": true,
          "internalType": "address",
          "name": "beacon",
          "type": "address"
        }
      ],
      "name": "BeaconUpgraded",
      "type": "event"
    },
    {
      "anonymous": false,
      "inputs": [
        {
          "indexed": false,
          "internalType": "uint8",
          "name": "version",
          "type": "uint8"
        }
      ],
      "name": "Initialized",
      "type": "event"
    },
    {
      "anonymous": false,
      "inputs": [
        {
          "indexed": true,
          "internalType": "address",
          "name": "previousOwner",
          "type": "address"
        },
        {
          "indexed": true,
          "internalType": "address",
          "name": "newOwner",
          "type": "address"
        }
      ],
      "name": "OwnershipTransferred",
      "type": "event"
    },
    {
      "anonymous": false,
      "inputs": [
        {
          "indexed": true,
          "internalType": "address",
          "name": "from",
          "type": "address"
        },
        {
          "indexed": true,
          "internalType": "address",
          "name": "to",
          "type": "address"
        },
        {
          "indexed": true,
          "internalType": "uint256",
          "name": "tokenId",
          "type": "uint256"
        }
      ],
      "name": "Transfer",
      "type": "event"
    },
    {
      "anonymous": false,
      "inputs": [
        {
          "indexed": true,
          "internalType": "address",
          "name": "implementation",
          "type": "address"
        }
      ],
      "name": "Upgraded",
      "type": "event"
    },
    {
      "inputs": [
        {
          "internalType": "address",
          "name": "to",
          "type": "address"
        },
        {
          "internalType": "uint256",
          "name": "tokenId",
          "type": "uint256"
        }
      ],
      "name": "approve",
      "outputs": [],
      "stateMutability": "nonpayable",
      "type": "function"
    },
    {
      "inputs": [
        {
          "internalType": "address",
          "name": "owner",
          "type": "address"
        }
      ],
      "name": "balanceOf",
      "outputs": [
        {
          "internalType": "uint256",
          "name": "",
          "type": "uint256"
        }
      ],
      "stateMutability": "view",
      "type": "function"
    },
    {
      "inputs": [
        {
          "internalType": "uint256",
          "name": "tokenId",
          "type": "uint256"
        }
      ],
      "name": "getApproved",
      "outputs": [
        {
          "internalType": "address",
          "name": "",
          "type": "address"
        }
      ],
      "stateMutability": "view",
      "type": "function"
    },
    {
      "inputs": [
        {
          "internalType": "string",
          "name": "_name",
          "type": "string"
        },
        {
          "internalType": "string",
          "name": "_symbol",
          "type": "string"
        }
      ],
      "name": "initialize",
      "outputs": [],
      "stateMutability": "nonpayable",
      "type": "function"
    },
    {
      "inputs": [
        {
          "internalType": "address",
          "name": "owner",
          "type": "address"
        },
        {
          "internalType": "address",
          "name": "operator",
          "type": "address"
        }
      ],
      "name": "isApprovedForAll",
      "outputs": [
        {
          "internalType": "bool",
          "name": "",
          "type": "bool"
        }
      ],
      "stateMutability": "view",
      "type": "function"
    },
    {
      "inputs": [],
      "name": "merkleRoot",
      "outputs": [
        {
          "internalType": "bytes32",
          "name": "",
          "type": "bytes32"
        }
      ],
      "stateMutability": "view",
      "type": "function"
    },
    {
      "inputs": [],
      "name": "name",
      "outputs": [
        {
          "internalType": "string",
          "name": "",
          "type": "string"
        }
      ],
      "stateMutability": "view",
      "type": "function"
    },
    {
      "inputs": [],
      "name": "owner",
      "outputs": [
        {
          "internalType": "address",
          "name": "",
          "type": "address"
        }
      ],
      "stateMutability": "view",
      "type": "function"
    },
    {
      "inputs": [
        {
          "internalType": "uint256",
          "name": "tokenId",
          "type": "uint256"
        }
      ],
      "name": "ownerOf",
      "outputs": [
        {
          "internalType": "address",
          "name": "",
          "type": "address"
        }
      ],
      "stateMutability": "view",
      "type": "function"
    },
    {
      "inputs": [],
      "name": "proxiableUUID",
      "outputs": [
        {
          "internalType": "bytes32",
          "name": "",
          "type": "bytes32"
        }
      ],
      "stateMutability": "view",
      "type": "function"
    },
    {
      "inputs": [],
      "name": "renounceOwnership",
      "outputs": [],
      "stateMutability": "nonpayable",
      "type": "function"
    },
    {
      "inputs": [
        {
          "internalType": "address",
          "name": "to",
          "type": "address"
        },
        {
          "internalType": "uint256",
          "name": "quantity",
          "type": "uint256"
        },
        {
          "internalType": "bytes32[]",
          "name": "merkleProof",
          "type": "bytes32[]"
        }
      ],
      "name": "safeMint",
      "outputs": [],
      "stateMutability": "nonpayable",
      "type": "function"
    },
    {
      "inputs": [
        {
          "internalType": "address",
          "name": "from",
          "type": "address"
        },
        {
          "internalType": "address",
          "name": "to",
          "type": "address"
        },
        {
          "internalType": "uint256",
          "name": "tokenId",
          "type": "uint256"
        }
      ],
      "name": "safeTransferFrom",
      "outputs": [],
      "stateMutability": "nonpayable",
      "type": "function"
    },
    {
      "inputs": [
        {
          "internalType": "address",
          "name": "from",
          "type": "address"
        },
        {
          "internalType": "address",
          "name": "to",
          "type": "address"
        },
        {
          "internalType": "uint256",
          "name": "tokenId",
          "type": "uint256"
        },
        {
          "internalType": "bytes",
          "name": "data",
          "type": "bytes"
        }
      ],
      "name": "safeTransferFrom",
      "outputs": [],
      "stateMutability": "nonpayable",
      "type": "function"
    },
    {
      "inputs": [
        {
          "internalType": "address",
          "name": "operator",
          "type": "address"
        },
        {
          "internalType": "bool",
          "name": "approved",
          "type": "bool"
        }
      ],
      "name": "setApprovalForAll",
      "outputs": [],
      "stateMutability": "nonpayable",
      "type": "function"
    },
    {
      "inputs": [
        {
          "internalType": "bytes32",
          "name": "_merkleRoot",
          "type": "bytes32"
        }
      ],
      "name": "setMerkleRoot",
      "outputs": [],
      "stateMutability": "nonpayable",
      "type": "function"
    },
    {
      "inputs": [
        {
          "internalType": "bytes4",
          "name": "interfaceId",
          "type": "bytes4"
        }
      ],
      "name": "supportsInterface",
      "outputs": [
        {
          "internalType": "bool",
          "name": "",
          "type": "bool"
        }
      ],
      "stateMutability": "view",
      "type": "function"
    },
    {
      "inputs": [],
      "name": "symbol",
      "outputs": [
        {
          "internalType": "string",
          "name": "",
          "type": "string"
        }
      ],
      "stateMutability": "view",
      "type": "function"
    },
    {
      "inputs": [
        {
          "internalType": "uint256",
          "name": "tokenId",
          "type": "uint256"
        }
      ],
      "name": "tokenURI",
      "outputs": [
        {
          "internalType": "string",
          "name": "",
          "type": "string"
        }
      ],
      "stateMutability": "view",
      "type": "function"
    },
    {
      "inputs": [
        {
          "internalType": "address",
          "name": "from",
          "type": "address"
        },
        {
          "internalType": "address",
          "name": "to",
          "type": "address"
        },
        {
          "internalType": "uint256",
          "name": "tokenId",
          "type": "uint256"
        }
      ],
      "name": "transferFrom",
      "outputs": [],
      "stateMutability": "nonpayable",
      "type": "function"
    },
    {
      "inputs": [
        {
          "internalType": "address",
          "name": "newOwner",
          "type": "address"
        }
      ],
      "name": "transferOwnership",
      "outputs": [],
      "stateMutability": "nonpayable",
      "type": "function"
    },
    {
      "inputs": [
        {
          "internalType": "address",
          "name": "newImplementation",
          "type": "address"
        }
      ],
      "name": "upgradeTo",
      "outputs": [],
      "stateMutability": "nonpayable",
      "type": "function"
    },
    {
      "inputs": [
        {
          "internalType": "address",
          "name": "newImplementation",
          "type": "address"
        },
        {
          "internalType": "bytes",
          "name": "data",
          "type": "bytes"
        }
      ],
      "name": "upgradeToAndCall",
      "outputs": [],
      "stateMutability": "payable",
      "type": "function"
    }
  ],
  "bytecode": "0x60a06040523060805234801561001457600080fd5b5061001d610022565b6100e2565b600054610100900460ff161561008e5760405162461bcd60e51b815260206004820152602760248201527f496e697469616c697a61626c653a20636f6e747261637420697320696e697469604482015266616c697a696e6760c81b606482015260840160405180910390fd5b60005460ff90811610156100e0576000805460ff191660ff9081179091556040519081527f7f26b83ff96e1f2b6a682f133852f6798a09c465da95921460cefb38474024989060200160405180910390a15b565b6080516123cd6200011a600039600081816107ca0152818161080a015281816109e901528181610a290152610abc01526123cd6000f3fe6080604052600436106101405760003560e01c806352d1902d116100b657806395d89b411161006f57806395d89b4114610376578063a22cb4651461038b578063b88d4fde146103ab578063c87b56dd146103cb578063e985e9c5146103eb578063f2fde38b1461043457600080fd5b806352d1902d146102ce5780636352211e146102e357806370a0823114610303578063715018a6146103235780637cb64759146103385780638da5cb5b1461035857600080fd5b80632dfd972a116101085780632dfd972a146102165780632eb4a7ab146102365780633659cfe61461025b57806342842e0e1461027b5780634cd88b761461029b5780634f1ef286146102bb57600080fd5b806301ffc9a71461014557806306fdde031461017a578063081812fc1461019c578063095ea7b3146101d457806323b872dd146101f6575b600080fd5b34801561015157600080fd5b50610165610160366004611c67565b610454565b60405190151581526020015b60405180910390f35b34801561018657600080fd5b5061018f6104a6565b6040516101719190611cdc565b3480156101a857600080fd5b506101bc6101b7366004611cef565b610538565b6040516001600160a01b039091168152602001610171565b3480156101e057600080fd5b506101f46101ef366004611d24565b61055f565b005b34801561020257600080fd5b506101f4610211366004611d4e565b61067a565b34801561022257600080fd5b506101f4610231366004611d8a565b6106ab565b34801561024257600080fd5b5061024d61012e5481565b604051908152602001610171565b34801561026757600080fd5b506101f4610276366004611e14565b6107bf565b34801561028757600080fd5b506101f4610296366004611d4e565b61089f565b3480156102a757600080fd5b506101f46102b6366004611ed2565b6108ba565b6101f46102c9366004611f36565b6109de565b3480156102da57600080fd5b5061024d610aaf565b3480156102ef57600080fd5b506101bc6102fe366004611cef565b610b62565b34801561030f57600080fd5b5061024d61031e366004611e14565b610bc2565b34801561032f57600080fd5b506101f4610c48565b34801561034457600080fd5b506101f4610353366004611cef565b610c5c565b34801561036457600080fd5b506097546001600160a01b03166101bc565b34801561038257600080fd5b5061018f610c6a565b34801561039757600080fd5b506101f46103a6366004611f7a565b610c79565b3480156103b757600080fd5b506101f46103c6366004611fb6565b610c84565b3480156103d757600080fd5b5061018f6103e6366004611cef565b610cbc565b3480156103f757600080fd5b5061016561040636600461201e565b6001600160a01b039182166000908152606a6020908152604080832093909416825291909152205460ff1690565b34801561044057600080fd5b506101f461044f366004611e14565b610d49565b60006001600160e01b031982166380ac58cd60e01b148061048557506001600160e01b03198216635b5e139f60e01b145b806104a057506301ffc9a760e01b6001600160e01b03198316145b92915050565b6060606580546104b590612051565b80601f01602080910402602001604051908101604052809291908181526020018280546104e190612051565b801561052e5780601f106105035761010080835404028352916020019161052e565b820191906000526020600020905b81548152906001019060200180831161051157829003601f168201915b5050505050905090565b600061054382610dbf565b506000908152606960205260409020546001600160a01b031690565b600061056a82610b62565b9050806001600160a01b0316836001600160a01b031614156105dd5760405162461bcd60e51b815260206004820152602160248201527f4552433732313a20617070726f76616c20746f2063757272656e74206f776e656044820152603960f91b60648201526084015b60405180910390fd5b336001600160a01b03821614806105f957506105f98133610406565b61066b5760405162461bcd60e51b815260206004820152603d60248201527f4552433732313a20617070726f76652063616c6c6572206973206e6f7420746f60448201527f6b656e206f776e6572206f7220617070726f76656420666f7220616c6c00000060648201526084016105d4565b6106758383610e1e565b505050565b6106843382610e8c565b6106a05760405162461bcd60e51b81526004016105d49061208c565b610675838383610f0b565b6106b361106f565b6040516bffffffffffffffffffffffff19606086901b166020820152603481018490526000906054016040516020818303038152906040528051906020012090506107368383808060200260200160405190810160405280939291908181526020018383602002808284376000920191909152505061012e5491508490506110c9565b6107725760405162461bcd60e51b815260206004820152600d60248201526c34b73b30b634b210383937b7b360991b60448201526064016105d4565b60005b848110156107b757600061078961012d5490565b905061079587826110df565b6107a461012d80546001019055565b50806107af816120d9565b915050610775565b505050505050565b306001600160a01b037f00000000000000000000000000000000000000000000000000000000000000001614156108085760405162461bcd60e51b81526004016105d490612102565b7f00000000000000000000000000000000000000000000000000000000000000006001600160a01b0316610851600080516020612351833981519152546001600160a01b031690565b6001600160a01b0316146108775760405162461bcd60e51b81526004016105d49061214e565b610880816110f9565b6040805160008082526020820190925261089c91839190611101565b50565b61067583838360405180602001604052806000815250610c84565b600054610100900460ff16158080156108da5750600054600160ff909116105b806108f45750303b1580156108f4575060005460ff166001145b6109575760405162461bcd60e51b815260206004820152602e60248201527f496e697469616c697a61626c653a20636f6e747261637420697320616c72656160448201526d191e481a5b9a5d1a585b1a5e995960921b60648201526084016105d4565b6000805460ff19166001179055801561097a576000805461ff0019166101001790555b610984838361127b565b61098c6112ac565b6109946112db565b8015610675576000805461ff0019169055604051600181527f7f26b83ff96e1f2b6a682f133852f6798a09c465da95921460cefb38474024989060200160405180910390a1505050565b306001600160a01b037f0000000000000000000000000000000000000000000000000000000000000000161415610a275760405162461bcd60e51b81526004016105d490612102565b7f00000000000000000000000000000000000000000000000000000000000000006001600160a01b0316610a70600080516020612351833981519152546001600160a01b031690565b6001600160a01b031614610a965760405162461bcd60e51b81526004016105d49061214e565b610a9f826110f9565b610aab82826001611101565b5050565b6000306001600160a01b037f00000000000000000000000000000000000000000000000000000000000000001614610b4f5760405162461bcd60e51b815260206004820152603860248201527f555550535570677261646561626c653a206d757374206e6f742062652063616c60448201527f6c6564207468726f7567682064656c656761746563616c6c000000000000000060648201526084016105d4565b5060008051602061235183398151915290565b6000818152606760205260408120546001600160a01b0316806104a05760405162461bcd60e51b8152602060048201526018602482015277115490cdcc8c4e881a5b9d985b1a59081d1bdad95b88125160421b60448201526064016105d4565b60006001600160a01b038216610c2c5760405162461bcd60e51b815260206004820152602960248201527f4552433732313a2061646472657373207a65726f206973206e6f7420612076616044820152683634b21037bbb732b960b91b60648201526084016105d4565b506001600160a01b031660009081526068602052604090205490565b610c5061106f565b610c5a6000611302565b565b610c6461106f565b61012e55565b6060606680546104b590612051565b610aab338383611354565b610c8e3383610e8c565b610caa5760405162461bcd60e51b81526004016105d49061208c565b610cb684848484611423565b50505050565b6060610cc782610dbf565b6000610cf760408051808201909152601181527068747470733a2f2f626173652d7572692f60781b602082015290565b90506000815111610d175760405180602001604052806000815250610d42565b80610d2184611456565b604051602001610d3292919061219a565b6040516020818303038152906040525b9392505050565b610d5161106f565b6001600160a01b038116610db65760405162461bcd60e51b815260206004820152602660248201527f4f776e61626c653a206e6577206f776e657220697320746865207a65726f206160448201526564647265737360d01b60648201526084016105d4565b61089c81611302565b6000818152606760205260409020546001600160a01b031661089c5760405162461bcd60e51b8152602060048201526018602482015277115490cdcc8c4e881a5b9d985b1a59081d1bdad95b88125160421b60448201526064016105d4565b600081815260696020526040902080546001600160a01b0319166001600160a01b0384169081179091558190610e5382610b62565b6001600160a01b03167f8c5be1e5ebec7d5bd14f71427d1e84f3dd0314c0f7b2291e5b200ac8c7c3b92560405160405180910390a45050565b600080610e9883610b62565b9050806001600160a01b0316846001600160a01b03161480610edf57506001600160a01b038082166000908152606a602090815260408083209388168352929052205460ff165b80610f035750836001600160a01b0316610ef884610538565b6001600160a01b0316145b949350505050565b826001600160a01b0316610f1e82610b62565b6001600160a01b031614610f445760405162461bcd60e51b81526004016105d4906121c9565b6001600160a01b038216610fa65760405162461bcd60e51b8152602060048201526024808201527f4552433732313a207472616e7366657220746f20746865207a65726f206164646044820152637265737360e01b60648201526084016105d4565b826001600160a01b0316610fb982610b62565b6001600160a01b031614610fdf5760405162461bcd60e51b81526004016105d4906121c9565b600081815260696020908152604080832080546001600160a01b03199081169091556001600160a01b0387811680865260688552838620805460001901905590871680865283862080546001019055868652606790945282852080549092168417909155905184937fddf252ad1be2c89b69c2b068fc378daa952ba7f163c4a11628f55a4df523b3ef91a4505050565b6097546001600160a01b03163314610c5a5760405162461bcd60e51b815260206004820181905260248201527f4f776e61626c653a2063616c6c6572206973206e6f7420746865206f776e657260448201526064016105d4565b6000826110d685846114f3565b14949350505050565b610aab828260405180602001604052806000815250611538565b61089c61106f565b7f4910fdfa16fed3260ed0e7147f7cc6da11a60208b5b9406d12a635614ffd91435460ff1615611134576106758361156b565b826001600160a01b03166352d1902d6040518163ffffffff1660e01b815260040160206040518083038186803b15801561116d57600080fd5b505afa92505050801561119d575060408051601f3d908101601f1916820190925261119a9181019061220e565b60015b6112005760405162461bcd60e51b815260206004820152602e60248201527f45524331393637557067726164653a206e657720696d706c656d656e7461746960448201526d6f6e206973206e6f74205555505360901b60648201526084016105d4565b600080516020612351833981519152811461126f5760405162461bcd60e51b815260206004820152602960248201527f45524331393637557067726164653a20756e737570706f727465642070726f786044820152681a58589b195555525160ba1b60648201526084016105d4565b50610675838383611607565b600054610100900460ff166112a25760405162461bcd60e51b81526004016105d490612227565b610aab828261162c565b600054610100900460ff166112d35760405162461bcd60e51b81526004016105d490612227565b610c5a61167a565b600054610100900460ff16610c5a5760405162461bcd60e51b81526004016105d490612227565b609780546001600160a01b038381166001600160a01b0319831681179093556040519116919082907f8be0079c531659141344cd1fd0a4f28419497f9722a3daafe3b4186f6b6457e090600090a35050565b816001600160a01b0316836001600160a01b031614156113b65760405162461bcd60e51b815260206004820152601960248201527f4552433732313a20617070726f766520746f2063616c6c65720000000000000060448201526064016105d4565b6001600160a01b038381166000818152606a6020908152604080832094871680845294825291829020805460ff191686151590811790915591519182527f17307eab39ab6107e8899845ad3d59bd9653f200f220920489ca2b5937696c31910160405180910390a3505050565b61142e848484610f0b565b61143a848484846116aa565b610cb65760405162461bcd60e51b81526004016105d490612272565b60606000611463836117b7565b600101905060008167ffffffffffffffff81111561148357611483611e2f565b6040519080825280601f01601f1916602001820160405280156114ad576020820181803683370190505b5090508181016020015b600019016f181899199a1a9b1b9c1cb0b131b232b360811b600a86061a8153600a85049450846114e6576114eb565b6114b7565b509392505050565b600081815b84518110156114eb5761152482868381518110611517576115176122c4565b602002602001015161188f565b915080611530816120d9565b9150506114f8565b61154283836118bb565b61154f60008484846116aa565b6106755760405162461bcd60e51b81526004016105d490612272565b6001600160a01b0381163b6115d85760405162461bcd60e51b815260206004820152602d60248201527f455243313936373a206e657720696d706c656d656e746174696f6e206973206e60448201526c1bdd08184818dbdb9d1c9858dd609a1b60648201526084016105d4565b60008051602061235183398151915280546001600160a01b0319166001600160a01b0392909216919091179055565b61161083611a46565b60008251118061161d5750805b1561067557610cb68383611a86565b600054610100900460ff166116535760405162461bcd60e51b81526004016105d490612227565b8151611666906065906020850190611bb8565b508051610675906066906020840190611bb8565b600054610100900460ff166116a15760405162461bcd60e51b81526004016105d490612227565b610c5a33611302565b60006001600160a01b0384163b156117ac57604051630a85bd0160e11b81526001600160a01b0385169063150b7a02906116ee9033908990889088906004016122da565b602060405180830381600087803b15801561170857600080fd5b505af1925050508015611738575060408051601f3d908101601f1916820190925261173591810190612317565b60015b611792573d808015611766576040519150601f19603f3d011682016040523d82523d6000602084013e61176b565b606091505b50805161178a5760405162461bcd60e51b81526004016105d490612272565b805181602001fd5b6001600160e01b031916630a85bd0160e11b149050610f03565b506001949350505050565b60008072184f03e93ff9f4daa797ed6e38ed64bf6a1f0160401b83106117f65772184f03e93ff9f4daa797ed6e38ed64bf6a1f0160401b830492506040015b6d04ee2d6d415b85acef81000000008310611822576d04ee2d6d415b85acef8100000000830492506020015b662386f26fc10000831061184057662386f26fc10000830492506010015b6305f5e1008310611858576305f5e100830492506008015b612710831061186c57612710830492506004015b6064831061187e576064830492506002015b600a83106104a05760010192915050565b60008183106118ab576000828152602084905260409020610d42565b5060009182526020526040902090565b6001600160a01b0382166119115760405162461bcd60e51b815260206004820181905260248201527f4552433732313a206d696e7420746f20746865207a65726f206164647265737360448201526064016105d4565b6000818152606760205260409020546001600160a01b0316156119765760405162461bcd60e51b815260206004820152601c60248201527f4552433732313a20746f6b656e20616c7265616479206d696e7465640000000060448201526064016105d4565b6000818152606760205260409020546001600160a01b0316156119db5760405162461bcd60e51b815260206004820152601c60248201527f4552433732313a20746f6b656e20616c7265616479206d696e7465640000000060448201526064016105d4565b6001600160a01b038216600081815260686020908152604080832080546001019055848352606790915280822080546001600160a01b0319168417905551839291907fddf252ad1be2c89b69c2b068fc378daa952ba7f163c4a11628f55a4df523b3ef908290a45050565b611a4f8161156b565b6040516001600160a01b038216907fbc7cd75a20ee27fd9adebab32041f755214dbc6bffa90cc0225b39da2e5c2d3b90600090a250565b60606001600160a01b0383163b611aee5760405162461bcd60e51b815260206004820152602660248201527f416464726573733a2064656c65676174652063616c6c20746f206e6f6e2d636f6044820152651b9d1c9858dd60d21b60648201526084016105d4565b600080846001600160a01b031684604051611b099190612334565b600060405180830381855af49150503d8060008114611b44576040519150601f19603f3d011682016040523d82523d6000602084013e611b49565b606091505b5091509150611b71828260405180606001604052806027815260200161237160279139611b7a565b95945050505050565b60608315611b89575081610d42565b610d428383815115611b9e5781518083602001fd5b8060405162461bcd60e51b81526004016105d49190611cdc565b828054611bc490612051565b90600052602060002090601f016020900481019282611be65760008555611c2c565b82601f10611bff57805160ff1916838001178555611c2c565b82800160010185558215611c2c579182015b82811115611c2c578251825591602001919060010190611c11565b50611c38929150611c3c565b5090565b5b80821115611c385760008155600101611c3d565b6001600160e01b03198116811461089c57600080fd5b600060208284031215611c7957600080fd5b8135610d4281611c51565b60005b83811015611c9f578181015183820152602001611c87565b83811115610cb65750506000910152565b60008151808452611cc8816020860160208601611c84565b601f01601f19169290920160200192915050565b602081526000610d426020830184611cb0565b600060208284031215611d0157600080fd5b5035919050565b80356001600160a01b0381168114611d1f57600080fd5b919050565b60008060408385031215611d3757600080fd5b611d4083611d08565b946020939093013593505050565b600080600060608486031215611d6357600080fd5b611d6c84611d08565b9250611d7a60208501611d08565b9150604084013590509250925092565b60008060008060608587031215611da057600080fd5b611da985611d08565b935060208501359250604085013567ffffffffffffffff80821115611dcd57600080fd5b818701915087601f830112611de157600080fd5b813581811115611df057600080fd5b8860208260051b8501011115611e0557600080fd5b95989497505060200194505050565b600060208284031215611e2657600080fd5b610d4282611d08565b634e487b7160e01b600052604160045260246000fd5b600082601f830112611e5657600080fd5b813567ffffffffffffffff80821115611e7157611e71611e2f565b604051601f8301601f19908116603f01168101908282118183101715611e9957611e99611e2f565b81604052838152866020858801011115611eb257600080fd5b836020870160208301376000602085830101528094505050505092915050565b60008060408385031215611ee557600080fd5b823567ffffffffffffffff80821115611efd57600080fd5b611f0986838701611e45565b93506020850135915080821115611f1f57600080fd5b50611f2c85828601611e45565b9150509250929050565b60008060408385031215611f4957600080fd5b611f5283611d08565b9150602083013567ffffffffffffffff811115611f6e57600080fd5b611f2c85828601611e45565b60008060408385031215611f8d57600080fd5b611f9683611d08565b915060208301358015158114611fab57600080fd5b809150509250929050565b60008060008060808587031215611fcc57600080fd5b611fd585611d08565b9350611fe360208601611d08565b925060408501359150606085013567ffffffffffffffff81111561200657600080fd5b61201287828801611e45565b91505092959194509250565b6000806040838503121561203157600080fd5b61203a83611d08565b915061204860208401611d08565b90509250929050565b600181811c9082168061206557607f821691505b6020821081141561208657634e487b7160e01b600052602260045260246000fd5b50919050565b6020808252602d908201527f4552433732313a2063616c6c6572206973206e6f7420746f6b656e206f776e6560408201526c1c881bdc88185c1c1c9bdd9959609a1b606082015260800190565b60006000198214156120fb57634e487b7160e01b600052601160045260246000fd5b5060010190565b6020808252602c908201527f46756e6374696f6e206d7573742062652063616c6c6564207468726f7567682060408201526b19195b1959d85d1958d85b1b60a21b606082015260800190565b6020808252602c908201527f46756e6374696f6e206d7573742062652063616c6c6564207468726f7567682060408201526b6163746976652070726f787960a01b606082015260800190565b600083516121ac818460208801611c84565b8351908301906121c0818360208801611c84565b01949350505050565b60208082526025908201527f4552433732313a207472616e736665722066726f6d20696e636f72726563742060408201526437bbb732b960d91b606082015260800190565b60006020828403121561222057600080fd5b5051919050565b6020808252602b908201527f496e697469616c697a61626c653a20636f6e7472616374206973206e6f74206960408201526a6e697469616c697a696e6760a81b606082015260800190565b60208082526032908201527f4552433732313a207472616e7366657220746f206e6f6e20455243373231526560408201527131b2b4bb32b91034b6b83632b6b2b73a32b960711b606082015260800190565b634e487b7160e01b600052603260045260246000fd5b6001600160a01b038581168252841660208201526040810183905260806060820181905260009061230d90830184611cb0565b9695505050505050565b60006020828403121561232957600080fd5b8151610d4281611c51565b60008251612346818460208701611c84565b919091019291505056fe360894a13ba1a3210667c828492db98dca3e2076cc3735a920a3ca505d382bbc416464726573733a206c6f772d6c6576656c2064656c65676174652063616c6c206661696c6564a2646970667358221220d89ca78639e58a3b8bc50ec4b190b76b7c30f4b9c493ee9fef1174677921c16364736f6c63430008090033",
  "linkReferences": {},
  "deployedLinkReferences": {}
}